{
  "contractName": "CarVinTracking",
  "abi": [
    {
      "constant": true,
      "inputs": [],
      "name": "owner",
      "outputs": [
        {
          "name": "",
          "type": "address"
        }
      ],
      "payable": false,
      "stateMutability": "view",
      "type": "function"
    },
    {
      "constant": true,
      "inputs": [
        {
          "name": "",
          "type": "uint256"
        }
      ],
      "name": "buyerInfo",
      "outputs": [
        {
          "name": "buyerAddress",
          "type": "address"
        },
        {
          "name": "name",
          "type": "bytes32"
        },
        {
          "name": "age",
          "type": "uint256"
        }
      ],
      "payable": false,
      "stateMutability": "view",
      "type": "function"
    },
    {
      "constant": true,
      "inputs": [
        {
          "name": "",
          "type": "uint256"
        }
      ],
      "name": "buyers",
      "outputs": [
        {
          "name": "",
          "type": "address"
        }
      ],
      "payable": false,
      "stateMutability": "view",
      "type": "function"
    },
    {
      "inputs": [],
      "payable": false,
      "stateMutability": "nonpayable",
      "type": "constructor"
    },
    {
      "anonymous": false,
      "inputs": [
        {
          "indexed": false,
          "name": "_buyer",
          "type": "address"
        },
        {
          "indexed": false,
          "name": "_id",
          "type": "uint256"
        },
        {
          "indexed": false,
          "name": "_name",
          "type": "bytes32"
        },
        {
          "indexed": false,
          "name": "_age",
          "type": "uint256"
        }
      ],
      "name": "LogBuyCarVinTracking",
      "type": "event"
    },
    {
      "anonymous": false,
      "inputs": [
        {
          "indexed": false,
          "name": "_buyer",
          "type": "address"
        },
        {
          "indexed": false,
          "name": "_id",
          "type": "uint256"
        },
        {
          "indexed": false,
          "name": "_name",
          "type": "bytes32"
        },
        {
          "indexed": false,
          "name": "_age",
          "type": "uint256"
        }
      ],
      "name": "LogBuyCarVinTracking2",
      "type": "event"
    },
    {
      "constant": false,
      "inputs": [
        {
          "name": "_id",
          "type": "uint256"
        },
        {
          "name": "_name",
          "type": "bytes32"
        },
        {
          "name": "_age",
          "type": "uint256"
        }
      ],
      "name": "buyCarVinTracking",
      "outputs": [],
      "payable": true,
      "stateMutability": "payable",
      "type": "function"
    },
    {
      "constant": false,
      "inputs": [
        {
          "name": "_id",
          "type": "uint256"
        },
        {
          "name": "_name",
          "type": "bytes32"
        },
        {
          "name": "_age",
          "type": "uint256"
        }
      ],
      "name": "buyCarVinTracking2",
      "outputs": [],
      "payable": true,
      "stateMutability": "payable",
      "type": "function"
    },
    {
      "constant": true,
      "inputs": [
        {
          "name": "_id",
          "type": "uint256"
        }
      ],
      "name": "getBuyerInfo",
      "outputs": [
        {
          "name": "",
          "type": "address"
        },
        {
          "name": "",
          "type": "bytes32"
        },
        {
          "name": "",
          "type": "uint256"
        }
      ],
      "payable": false,
      "stateMutability": "view",
      "type": "function"
    },
    {
      "constant": true,
      "inputs": [],
      "name": "getAllBuyers",
      "outputs": [
        {
          "name": "",
          "type": "address[10]"
        }
      ],
      "payable": false,
      "stateMutability": "view",
      "type": "function"
    }
  ],
  "bytecode": "0x608060405234801561001057600080fd5b5033600160006101000a81548173ffffffffffffffffffffffffffffffffffffffff021916908373ffffffffffffffffffffffffffffffffffffffff160217905550610994806100616000396000f300608060405260043610610083576000357c0100000000000000000000000000000000000000000000000000000000900463ffffffff1680633395d1cf146100885780635aee8703146100c057806386cba22b1461014357806388992847146101965780638da5cb5b146101ce578063e377e96614610225578063f2aa8218146102a8575b600080fd5b6100be60048036038101908080359060200190929190803560001916906020019092919080359060200190929190505050610315565b005b3480156100cc57600080fd5b506100eb6004803603810190808035906020019092919050505061051e565b604051808473ffffffffffffffffffffffffffffffffffffffff1673ffffffffffffffffffffffffffffffffffffffff1681526020018360001916600019168152602001828152602001935050505060405180910390f35b34801561014f57600080fd5b506101586105da565b6040518082600a60200280838360005b83811015610183578082015181840152602081019050610168565b5050505090500191505060405180910390f35b6101cc6004803603810190808035906020019092919080356000191690602001909291908035906020019092919050505061065b565b005b3480156101da57600080fd5b506101e3610864565b604051808273ffffffffffffffffffffffffffffffffffffffff1673ffffffffffffffffffffffffffffffffffffffff16815260200191505060405180910390f35b34801561023157600080fd5b506102506004803603810190808035906020019092919050505061088a565b604051808473ffffffffffffffffffffffffffffffffffffffff1673ffffffffffffffffffffffffffffffffffffffff1681526020018360001916600019168152602001828152602001935050505060405180910390f35b3480156102b457600080fd5b506102d3600480360381019080803590602001909291905050506108d4565b604051808273ffffffffffffffffffffffffffffffffffffffff1673ffffffffffffffffffffffffffffffffffffffff16815260200191505060405180910390f35b60008310158015610327575060098311155b151561033257600080fd5b33600284600a8110151561034257fe5b0160006101000a81548173ffffffffffffffffffffffffffffffffffffffff021916908373ffffffffffffffffffffffffffffffffffffffff1602179055506060604051908101604052803373ffffffffffffffffffffffffffffffffffffffff168152602001836000191681526020018281525060008085815260200190815260200160002060008201518160000160006101000a81548173ffffffffffffffffffffffffffffffffffffffff021916908373ffffffffffffffffffffffffffffffffffffffff1602179055506020820151816001019060001916905560408201518160020155905050600160009054906101000a900473ffffffffffffffffffffffffffffffffffffffff1673ffffffffffffffffffffffffffffffffffffffff166108fc349081150290604051600060405180830381858888f19350505050158015610495573d6000803e3d6000fd5b507ff2c34c13a0dfea4f8cdb3371eb3af32fc94874626ee89fcaaed4f718c4d16c3c33848484604051808573ffffffffffffffffffffffffffffffffffffffff1673ffffffffffffffffffffffffffffffffffffffff168152602001848152602001836000191660001916815260200182815260200194505050505060405180910390a1505050565b600080600061052b610909565b600080868152602001908152602001600020606060405190810160405290816000820160009054906101000a900473ffffffffffffffffffffffffffffffffffffffff1673ffffffffffffffffffffffffffffffffffffffff1673ffffffffffffffffffffffffffffffffffffffff1681526020016001820154600019166000191681526020016002820154815250509050806000015181602001518260400151935093509350509193909250565b6105e2610944565b6002600a806020026040519081016040528092919082600a8015610651576020028201915b8160009054906101000a900473ffffffffffffffffffffffffffffffffffffffff1673ffffffffffffffffffffffffffffffffffffffff1681526020019060010190808311610607575b5050505050905090565b6000831015801561066d575060098311155b151561067857600080fd5b33600284600a8110151561068857fe5b0160006101000a81548173ffffffffffffffffffffffffffffffffffffffff021916908373ffffffffffffffffffffffffffffffffffffffff1602179055506060604051908101604052803373ffffffffffffffffffffffffffffffffffffffff168152602001836000191681526020018281525060008085815260200190815260200160002060008201518160000160006101000a81548173ffffffffffffffffffffffffffffffffffffffff021916908373ffffffffffffffffffffffffffffffffffffffff1602179055506020820151816001019060001916905560408201518160020155905050600160009054906101000a900473ffffffffffffffffffffffffffffffffffffffff1673ffffffffffffffffffffffffffffffffffffffff166108fc349081150290604051600060405180830381858888f193505050501580156107db573d6000803e3d6000fd5b507f5c99348742e6b38a645e47b6cda71b56564d97ad50fd3ccd3a2c6fc89bcff11233848484604051808573ffffffffffffffffffffffffffffffffffffffff1673ffffffffffffffffffffffffffffffffffffffff168152602001848152602001836000191660001916815260200182815260200194505050505060405180910390a1505050565b600160009054906101000a900473ffffffffffffffffffffffffffffffffffffffff1681565b60006020528060005260406000206000915090508060000160009054906101000a900473ffffffffffffffffffffffffffffffffffffffff16908060010154908060020154905083565b600281600a811015156108e357fe5b016000915054906101000a900473ffffffffffffffffffffffffffffffffffffffff1681565b606060405190810160405280600073ffffffffffffffffffffffffffffffffffffffff16815260200160008019168152602001600081525090565b61014060405190810160405280600a906020820280388339808201915050905050905600a165627a7a72305820014cc528e2c18e65180bfe4e1d3d01af1f72c85b20c1ecfc14e9194751546c940029",
  "source": "pragma solidity ^0.4.23;\n\ncontract CarVinTracking {\n    struct Buyer {\n        address buyerAddress;\n        bytes32 name;\n        uint age;\n    }\n\n    mapping (uint => Buyer) public buyerInfo;\n    address public owner;\n    address[10] public buyers;\n\n    event LogBuyCarVinTracking(\n        address _buyer,\n        uint _id,\n        bytes32 _name,\n        uint _age\n    );\n\n     event LogBuyCarVinTracking2(\n        address _buyer,\n        uint _id,\n        bytes32 _name,\n        uint _age\n    );\n\n    constructor() public {\n        owner = msg.sender;\n    }\n\n    function buyCarVinTracking(uint _id, bytes32 _name, uint _age) public payable {\n        require(_id >= 0 && _id <= 9);\n        buyers[_id] = msg.sender;\n        buyerInfo[_id] = Buyer(msg.sender, _name, _age);\n\n        owner.transfer(msg.value);\n        emit LogBuyCarVinTracking(msg.sender, _id, _name, _age);\n    }\n\n    function buyCarVinTracking2(uint _id, bytes32 _name, uint _age) public payable {\n        require(_id >= 0 && _id <= 9);\n        buyers[_id] = msg.sender;\n        buyerInfo[_id] = Buyer(msg.sender, _name, _age);\n\n        owner.transfer(msg.value);\n        emit LogBuyCarVinTracking2(msg.sender, _id, _name, _age);\n    }\n\n    function getBuyerInfo(uint _id) public view returns (address, bytes32, uint) {\n        Buyer memory buyer = buyerInfo[_id];\n        return (buyer.buyerAddress, buyer.name, buyer.age);\n    }\n\n    function getAllBuyers() public view returns (address[10]) {\n        return buyers;\n    }\n}\n",
  "sourcePath": "/Users/ysangy/Hackathon/dApp-react-CarVINTracking/contracts/CarVinTracking.sol",
  "compiler": {
    "name": "solc",
    "version": "0.4.24+commit.e67f0147.Emscripten.clang"
  },
  "schemaVersion": "2.0.1",
  "updatedAt": "2019-08-18T01:41:22.060Z"
}